:020000040800F2
:1000000000500020D10100086D01000875010008B2
:100010007D010008850100088D0100080000000036
:100020000000000000000000000000009501000832
:10003000A101000800000000AD010008B90100089E
:100040001902000819020008190200081902000824
:100050001902000819020008190200081902000814
:100060001902000819020008190200081902000804
:1000700019020008190200081902000819020008F4
:1000800019020008190200081902000819020008E4
:1000900019020008190200081902000819020008D4
:1000A00019020008190200081902000819020008C4
:1000B00019020008190200081902000819020008B4
:1000C00019020008190200081902000819020008A4
:1000D0001902000819020008190200081902000894
:1000E00019020008190200081902000800000000A7
:1000F0000000000000000000000000000000000000
:0C01000000000000000000005FF808F1A3
:10010C0010B5054C237833B9044B13B10448AFF345
:10011C0000800123237010BD0400002000000000AB
:10012C008802000808B5034B1BB103490348AFF321
:10013C00008008BD000000000800002088020008B4
:10014C0080B400AF044B04229A61044B30221A6035
:10015C00024B0222DA60FBE700100240000801406B
:10016C0080B400AF00BFFDE780B400AF00BFFDE777
:10017C0080B400AF00BFFDE780B400AF00BFFDE767
:10018C0080B400AF00BFFDE780B400AF00BFBD4638
:10019C0080BC704780B400AF00BFBD4680BC7047C8
:1001AC0080B400AF00BFBD4680BC704780B500AFC7
:1001BC0000F02EF800BF80BD80B400AF00BFBD467C
:1001CC0080BC7047FFF7F8FF0B480C490C4A002322
:1001DC0002E0D458C4500433C4188C42F9D3094AF1
:1001EC00094C002301E013600432A242FBD300F05F
:1001FC0021F8FFF7A5FF7047000000200400002045
:10020C00A80200080400002024000020FEE70000E3
:10021C0080B400AF054B1B781A46054B1B68134482
:10022C00034A136000BFBD4680BC7047000000202D
:10023C002000002070B500260C4D0D4C641BA41042
:10024C00A64209D100F01AF800260A4D0A4C641B8C
:10025C00A410A64205D170BD55F8043B9847013651
:10026C00EEE755F8043B98470136F2E7A002000888
:10027C00A0020008A0020008A4020008F8B500BF04
:10028C00F8BC08BC9E467047F8B500BFF8BC08BC6B
:04029C009E467047C3
:0402A0003101000820
:0402A4000D01000840
:0402A8000100000051
:04000005080001D11D
:00000001FF
